:020000040000FA
:020000000E28C8
:10000800FE00030E83120313AE000408AF000A08B3
:10001800B000BC2A0F281223A9001323AA00142316
:10002800AB001523AC001623AD00A001A101A2016D
:10003800A301A401A501A601A701A801FC01FD01D6
:100048008301F12A05307D06031D2B282C286828FA
:1000580003307C0203183128322836288312031310
:100068008615A6287C1C39283A283E2883120313B3
:100078008611A6280030FD22F73EF900FF3003184C
:100088000030FA000230F0000030F1007C08FD3E3C
:10009800F200FF3003180030F300EF207108803AB7
:1000A800FB007A08803A7B02031D5C2879087002FD
:1000B80003185F2860286428831203138615A6286E
:1000C800831203138611A6283330831203132602E2
:1000D800031C6F28702885280310861D0314031835
:1000E80076287A288312031386157D288312031332
:1000F80086117D08031981288228A628FD01FC01A4
:10010800A62808307C0203188A288B28A5287D0891
:10011800293E84000130F9007C0A94280310F90D67
:10012800FF3E031D9228790883130005031D9D28AF
:10013800A128831203138615A4288312031386119A
:10014800A62886110130F9007908FC0711307C02D5
:10015800031CAF28B028B128FC013330260203184D
:10016800B628B728BB280130F9007908A60711304E
:100178002502031CC028C128CE288615061CC528C0
:10018800C628C2280530F9007908FD00A501A40198
:10019800FC01DC280618D128D228DC2811302502D9
:1001A8000318D728D828DC280130F9007908A507D2
:1001B80005307D06031DE128E228EE280130F9000C
:1001C8007908A407FB302402031CEB28EC28EE284E
:1001D800A401FD010800F601F11FF328F428FB280B
:1001E800F009F109F00A0319F10AF601F60AF31FFA
:1001F800FE28FF280829F209F309F20A0319F30A6D
:100208000130F4007408F606F701F801700871046B
:1002180003190F2910294729F501F50A1E2901306C
:100228000310F00DF10DFF3E031D14290130F400F9
:100238007408F507F11F2129222913290130031019
:10024800F70DF80DFF3E031D232971087302031DE6
:100258002F2970087202031C322933293A297008A1
:10026800F2027108031CF303F30277140130031040
:10027800F10CF00CFF3E031D3B290130F502031D74
:10028800462947292229760803194B294C2951293F
:10029800F709F809F70A0319F80A7808F100770846
:1002A800F00008007D08FA007A08FB008B12831220
:1002B80003132808FC3EFA007A08A8000030FD2243
:1002C80083120313280603196A296B2971295530EB
:1002D8002806031D702971297229A7012808FA0028
:1002E8002708203E84007A08831380000130FA0032
:1002F8007A08A707A80104302702031C8429852946
:10030800AD29A701FB21003A03198B298C29AD29B6
:1003180083120313A60105307D06031D9429952930
:10032800A9290030FD2283120313210603199D29F0
:100338009E29AD292108FA007A08F5000030082323
:10034800FC0183120313A401AD292108FA007A08DD
:10035800FD007D087B060319B229B329B429FC01E5
:100368000800F4007008F2007208F3008316031303
:100378009C18BF29C029BA297408FF3E9B007F300A
:10038800F20072089C05F329831603139C18CD29E3
:10039800CE29C8297308840000089A000130F200A9
:1003A8007208F3070130F20072089B0783120313E7
:1003B80003108B1FE029E129E22903148B1383160C
:1003C80003131C1555309D00AA309D009C141C1168
:1003D80083120313031CF129F229F3298B17013027
:1003E800F102710A031DF929FA29C8290800053004
:1003F8007D06031D002A012A1A2AF80155308312A6
:1004080003132006031D092A0A2A182A210822068E
:10041800031D0F2A102A182AAA302306031D152A9D
:10042800162A182AF801F80A7808332AF901003040
:10043800FD22831203132006031D232A242A322AAD
:1004480021082206031D292A2A2A322AAA3023062D
:10045800031D2F2A302A322AF901F90A79080800DF
:100468004E2A8617061386120612662A8613061760
:1004780086120612662A8613061386160612662A3E
:100488008613061386120616662A86130613861224
:100498000612662A7D0883120313B100B2013208DE
:1004A800003A0319582A492A3108013A0319352A0A
:1004B800033A03193A2A013A03193F2A073A03195A
:1004C800442A492A0800F4007408F2007208F3006C
:1004D800831603139C18712A722A6C2A70089B00D1
:1004E8008C2A9C18782A792A752A7F30F20072089B
:1004F8009C051C141A08F200730884007208800016
:100508000130F2007208F3070130F20072089B070D
:100518000130F102710A031D922A932A752A0800F4
:1005280007308312031386000730831603138600EF
:10053800811383120313810183160313811201129D
:1005480081110111811401140B118B1283120313F1
:100558008F018E0110169012901190100C108316B6
:1005680003130C148312031310148B170B170800B2
:100578000B1DBF2AC02AC62A8B1EC32AC42AC52A15
:1005880056210B11831203130C1CCB2ACC2AD62A12
:10059800831603130C1CD12AD22AD32A26208312AD
:1005A80003130C1030088A002F0884002E0E8300D5
:1005B800FE0E7E0E090083120313061DE42AE52AA7
:1005C800F02A0619E82AE92AE52A0130B10031089B
:1005D800A80781010B118B16080094223422DF2210
:1005E80083120313061CF92AFA2AF22AA501F22A11
:1005F8000E28F6007608F5007508F000F101F10AFA
:100608007730672277080800F7007530F60076081B
:10061800F000F101F10A7708B5210800F0348034C0
:06062800A034A834AA343E
:02400E00183F59
:024200000A00B2
:00000001FF
