:020000040000FA
:020000000C28CA
:10000800FE00030EFB000408FC000A08FD00E42AB9
:100018000D287223AE007323AF007423B00075233C
:10002800B1007623B2007723B300B401B501B6015D
:10003800B701B8018301E528063083120313380697
:10004800031D2728282859280330340203182D288F
:100058002E28302886158E28341C33283428362834
:1000680086118E280230F0000030F1003408FD3E81
:10007800F200FF3003180030F300E3217108803AE2
:10008800F90080307902031D4D28831203133308C9
:100098007002031850285128552883120313861517
:1000A8008E288312031386118E2805303806031D07
:1000B8005E285F286D280310861D03140318652821
:1000C80069288312031386156C288312031386117B
:1000D8008E28083034020318722873288D283808AF
:1000E8002E3E84000130F900340A7C280310F90DF3
:1000F800FF3E031D7A28790883130005031D852810
:1001080089288312031386158C28831203138611FA
:100118008E2886110130F9007908B40711303402AD
:10012800031C972898289928B40111303602031C1B
:100138009E289F28BB288615061CA328A428A0282B
:1001480006303806031DA928AA28AF280530F9006B
:100158007908B800B7283808F9007908B7000630D8
:10016800F9007908B800B601B501B401C928061824
:10017800BE28BF28C928113036020318C428C5284C
:10018800C9280130F9007908B6070630380603197E
:10019800CE28CF28D52805303806031DD428D528E1
:1001A800E4280130F9007908B507FB303502031C53
:1001B800DE28DF28E428B5013708F9007908B800F7
:1001C80008001D2300305723F73E83120313AB00AA
:1001D8002B08B300061105303806031DF428F5284E
:1001E80000295530722100305723722100305723DF
:1001F8007221AA30722113290630380603190529FD
:100208000629132900305723722183120313380853
:1002180072218312031338087221AA3072218312C3
:1002280003130618182919296A293808AB002B085E
:10023800AD0005303806031D222923292729370850
:10024800AB002B08B800061C2A292B2927290D30BA
:1002580083120313AC00FB30AB00AB0B3129AC0BA2
:10026800312900000630831203133806031D3D2987
:100278003E29EE2806302D06031D43294429EE2881
:1002880000305723013E83120313AB002B08A8004C
:10029800003066230030572383120313AB000F305E
:1002A8002B02031C582959295F290A30AB002B0857
:1002B800A8000030662300305723F73E831203134B
:1002C800AB002B08B300B501B401EE2836080319BA
:1002D8006E296F29EE28B601EE280C288312031325
:1002E800A200A501A601831203130615C7308312C5
:1002F8000313A0007F29A00B7E2982290000831206
:1003080003130611C73083120313A0008B29A00B17
:100318008A298E290000013083120313A5070318C8
:10032800A60A0030A6072608803AFF0080307F0220
:10033800031DA02903302502031CA329A42977291A
:1003480083120313A301A401C929831203130615F9
:10035800C73083120313A000B129A00BB029B42918
:100368000000831203130611C73083120313A00081
:10037800BD29A00BBC29C02900000130831203133A
:10038800A3070318A40A0030A4072408803A803C75
:10039800031DD029230822020318D329D429A92907
:1003A8008312031306110D3083120313A100FB30CF
:1003B800A000A00BDD29A10BDD2900000800F60133
:1003C800F11FE729E829EF29F009F109F00A0319D3
:1003D800F10AF601F60AF31FF229F329FC29F209BA
:1003E800F309F20A0319F30A0130F4007408F60657
:1003F800F701F801700871040319032A042A3B2A3B
:10040800F501F50A122A01300310F00DF10DFF3E37
:10041800031D082A0130F4007408F507F11F152A96
:10042800162A072A01300310F70DF80DFF3E031DA9
:10043800172A71087302031D232A70087202031C0D
:10044800262A272A2E2A7008F2027108031CF303B1
:10045800F302771401300310F10CF00CFF3E031D7A
:100468002F2A0130F502031D3A2A3B2A162A76085C
:1004780003193F2A402A452AF709F809F70A0319F8
:10048800F80A7808F1007708F000080083120313CF
:10049800A4002008A2002208A300831603139C18B6
:1004A800562A572A512A831203132408FF3E83161B
:1004B80003139B007F3083120313A20022088316C4
:1004C80003139C059B2A831603139C186C2A6D2A18
:1004D800672A8312031323088400831300088316F2
:1004E80003139A00013083120313A2002208A30702
:1004F8000130A2002208831603139B0783120313FB
:1005080003108B1F882A892A8A2A03148B138316BF
:1005180003131C1555309D00AA309D009C141C1116
:1005280083120313031C992A9A2A9B2A8B170130DA
:100538008312A102210A031DA22AA32A672A0800FE
:1005480083120313A4002408A2002208A300831620
:1005580003139C18B02AB12AAB2A8312031320086C
:10056800831603139B00DA2A831603139C18BD2AEB
:10057800BE2AB82A7F3083120313A20022088316EA
:1005880003139C051C141A0883120313A2002308E2
:1005980084002208831380000130A2002208A307E8
:1005A8000130A2002208831603139B07013083122F
:1005B8000313A102210A031DE22AE32AB82A08002C
:1005C8000B1CE72AE82A042B06308312031338068B
:1005D8000319EF2AF02AF62A05303806031DF52AF2
:1005E800F62AFD2A3A23FA007A0883120313B70081
:1005F800032B3A23FA007A0883120313B8000B106E
:10060800831203130C1C092B0A2B142B83160313B8
:100618000C1C0F2B102B112B2020831203130C10F2
:100628007D088A007C0884007B0E8300FE0E7E0E07
:100638000900F730831203138600F1308316031381
:10064800860081130B108B15831203138F018E0103
:1006580010169012901190100C10831603130C149E
:100668008312031310148B170B170800831203133C
:10067800B401861B402B412B432B0130562B061B04
:10068800462B472B492B0230562B861A4C2B4D2BC9
:100698004F2B0330562B061A522B532B552B043055
:1006A800562B0030080083120313A7002708A50063
:1006B8002508A000A101A10A2630A4228312031351
:1006C8002608080083120313AA002830A900290865
:1006D800A000A101A10A2A084A220800F0348034A7
:0806E800A034A834AA34013447
:02400E00183F59
:024200000A00B2
:00000001FF
